012016010402UGPA3       010ULTRAPAR    ON      NM   R$  000000000588400000000059850000000005722000000000584000000000057500000000005750000000000575910871000000000002064700000000012057932800000000000000009999123100000010000000000000BRUGPAACNOR8136
012016010496UGPA3F      020ULTRAPAR    ON      NM   R$  000000000588900000000059840000000005702000000000586600000000057810000000005701000000000578100152000000000000004269000000000025043373000000000000009999123100000010000000000000BRUGPAACNOR8136
012016010462UGPA3T      030ULTRAPAR    ON      NM030R$  000000000581700000000058180000000005817000000000581700000000058180000000000000000000000000000002000000000000000500000000000002908925000000000000009999123100000010000000000000BRUGPAACNOR8136
012016010462UGPA3T      030ULTRAPAR    ON      NM091R$  000000000593000000000059310000000005930000000000593000000000059310000000000000000000000000000002000000000000000100000000000000593034000000000000009999123100000010000000000000BRUGPAACNOR8136
