012014010202AAPL34      010APPLE       DRN          R$  000000001321200000000132120000000013212000000001321200000000132120000000013190000000001334000001000000000000000900000000000011890800000000000000009999123100000010000000000000BRAAPLBDR004106
012014010302ABCB4       010ABC BRASIL  PN  EJS N2   R$  000000000123100000000012360000000001170000000000119200000000011900000000001175000000000119001544000000000000361200000000000430789400000000000000009999123100000010000000000000BRABCBACNPR4121
012014010296ABCB4F      020ABC BRASIL  PN  EJS N2   R$  000000000121000000000012100000000001176000000000117900000000011760000000001152000000000124900003000000000000000143000000000000168614000000000000009999123100000010000000000000BRABCBACNPR4121
012014010262ABCB4T      030ABC BRASIL  PN  EJS N2361R$  000000000134600000000013470000000001346000000000134600000000013470000000000000000000000000000002000000000000000100000000000000134639000000000000009999123100000010000000000000BRABCBACNPR4121
012014010202ABEV3       010AMBEV S/A   ON           R$  000000000173000000000017500000000001718000000000173900000000017390000000001738000000000174022569000000000008035400000000013974472400000000000000009999123100000010000000000000BRABEVACNOR1100
012014010296ABEV3F      020AMBEV S/A   ON           R$  000000000172600000000017500000000001711000000000173800000000017500000000001740000000000175000341000000000000010795000000000018764429000000000000009999123100000010000000000000BRABEVACNOR1100
012014010262ABEV3T      030AMBEV S/A   ON        180R$  000000000181500000000018160000000001815000000000181500000000018160000000000000000000000000000002000000000000006500000000000011799123000000000000009999123100000010000000000000BRABEVACNOR1100
012014010202ABRE11      010ABRIL EDUCA UNT     N2   R$  000000000332300000000033560000000003198000000000326600000000032530000000003215000000000325500789000000000000104700000000000342050000000000000000009999123100000010000000000000BRABRECDAM15102
012014010296ABRE11F     020ABRIL EDUCA UNT     N2   R$  000000000334000000000033400000000003207000000000325600000000032070000000003207000000000339900007000000000000000159000000000000517853000000000000009999123100000010000000000000BRABRECDAM15102
012014010202AEDU3       010ANHANGUERA  ON      NM   R$  000000000149100000000014940000000001432000000000145900000000014550000000001455000000000146006270000000000001416300000000002066946100000000000000009999123100000010000000000000BRAEDUACNOR9107
012014010296AEDU3F      020ANHANGUERA  ON      NM   R$  000000000150900000000015350000000001440000000000146700000000014750000000001389000000000147500123000000000000001166000000000001711403000000000000009999123100000010000000000000BRAEDUACNOR9107
012014010212AEFI11      010FII AESAPAR CI  ER       R$  000000001179900000000117990000000011400000000001152400000000115000000000011462000000001150000029000000000000000790000000000009104300000000000000009999123100000010000000000000BRAEFICTF002125
012014010202AELP3       010AES ELPA    ON           R$  000000000087100000000008710000000000871000000000087100000000008710000000000821000000000092400001000000000000000200000000000000174200000000000000009999123100000010000000000000BRAELPACNOR2120
012014010202AGRO3       010BRASILAGRO  ON  ED  NM   R$  000000000096000000000009600000000000945000000000094600000000009500000000000925000000000095000007000000000000003800000000000003598000000000000000009999123100000010000000000000BRAGROACNOR7103
012014010202ALLL3       010ALL AMER LATON      NM   R$  000000000065400000000006540000000000621000000000063100000000006300000000000627000000000063019225000000000006661900000000004203874300000000000000009999123100000010000000000000BRALLLACNOR6118
012014010296ALLL3F      020ALL AMER LATON      NM   R$  000000000065300000000006530000000000622000000000063100000000006280000000000623000000000062800062000000000000001643000000000001037564000000000000009999123100000010000000000000BRALLLACNOR6118
012014010262ALLL3T      030ALL AMER LATON      NM018R$  000000000063400000000006350000000000634000000000063400000000006350000000000000000000000000000002000000000000003300000000000002092295000000000000009999123100000010000000000000BRALLLACNOR6118
012014010262ALLL3T      030ALL AMER LATON      NM032R$  000000000064100000000006420000000000631000000000063100000000006320000000000000000000000000000004000000000000005400000000000003411653000000000000009999123100000010000000000000BRALLLACNOR6118
012014010262ALLL3T      030ALL AMER LATON      NM062R$  000000000064600000000006470000000000646000000000064600000000006470000000000000000000000000000002000000000000002000000000000001293620000000000000009999123100000010000000000000BRALLLACNOR6118
012014010262ALLL3T      030ALL AMER LATON      NM120R$  000000000065100000000006520000000000651000000000065100000000006520000000000000000000000000000002000000000000001000000000000000651737000000000000009999123100000010000000000000BRALLLACNOR6118
012014010262ALLL3T      030ALL AMER LATON      NM361R$  000000000069700000000006980000000000697000000000069700000000006980000000000000000000000000000002000000000000000200000000000000139420000000000000009999123100000010000000000000BRALLLACNOR6118
012014010212ALMI11B     010FII TORRE ALCI  ER  MB   R$  000000031200000000003120000000000311000000000031129000000003110000000000311000000000031390000009000000000000000010000000000003112903000000000000009999123100000010000000000000BRALMICTF003209
012014010202ALPA4       010ALPARGATAS  PN      N1   R$  000000000147400000000014830000000001400000000000142200000000014000000000001399000000000140000688000000000000152200000000000216436000000000000000009999123100000010000000000000BRALPAACNPR7204
012014010296ALPA4F      020ALPARGATAS  PN      N1   R$  000000000143000000000014300000000001411000000000141500000000014110000000001411000000000141700074000000000000001801000000000002548853000000000000009999123100000010000000000000BRALPAACNPR7204
012014010262ALPA4T      030ALPARGATAS  PN      N1062R$  000000000143800000000014390000000001438000000000143800000000014390000000000000000000000000000002000000000000000300000000000000431519000000000000009999123100000010000000000000BRALPAACNPR7204
012014010202ALSC3       010ALIANSCE    ON      NM   R$  000000000182900000000018440000000001800000000000181100000000018100000000001810000000000181201076000000000000341900000000000619367300000000000000009999123100000010000000000000BRALSCACNOR0104
012014010296ALSC3F      020ALIANSCE    ON      NM   R$  000000000181100000000019950000000001811000000000182300000000019950000000001804000000000210000004000000000000000075000000000000136745000000000000009999123100000010000000000000BRALSCACNOR0104
012014010202ALUP11      010ALUPAR      UNT     N2   R$  000000000162400000000016490000000001608000000000162100000000016190000000001619000000000162602267000000000000381900000000000619419700000000000000009999123100000010000000000000BRALUPCDAM15100
012014010296ALUP11F     020ALUPAR      UNT     N2   R$  000000000163000000000016960000000001600000000000162700000000016960000000001610000000000169600026000000000000000870000000000001415584000000000000009999123100000010000000000000BRALUPCDAM15100
012014010202AMAR3       010LOJAS MARISAON      NM   R$  000000000185900000000019070000000001818000000000186600000000018400000000001840000000000185402297000000000000358200000000000668620700000000000000009999123100000010000000000000BRAMARACNOR4109
012014123014XPOM11      010FIP XP OMEGACI           R$  000000000839900000000083990000000008300000000000836000000000083000000000008135000000000839900003000000000000000077000000000000643753000000000000009999123100000010000000000000BRXPOMCTF004103
012014123014XPTD11      010FIA TOP DIV CI           R$  000000000848900000000085000000000008250000000000834500000000085000000000009000000000000000000026000000000000002197000000000018335575000000000000009999123100000010000000000000BRXPTDCTF002124
012014123012XTED11      010FII TRXE CORCI           R$  000000000538000000000054500000000005301000000000540600000000054450000000005313000000000544500144000000000000000759000000000004103169000000000000009999123100000010000000000000BRXTEDCTF006123
