012014010202LEVE3       010METAL LEVE  ON      NM   R$  000000000272800000000027660000000002687000000000273600000000026870000000002687000000000271800582000000000000084000000000000229844400000000000000009999123100000010000000000000BRLEVEACNOR2168
012014010302LEVE3       010METAL LEVE  ON      NM   R$  000000000270000000000027550000000002677000000000272400000000027300000000002705000000000273001224000000000000189900000000000517324900000000000000009999123100000010000000000000BRLEVEACNOR2168
012014010602LEVE3       010METAL LEVE  ON      NM   R$  000000000273100000000027430000000002643000000000266600000000026650000000002665000000000267000881000000000000167100000000000445632500000000000000009999123100000010000000000000BRLEVEACNOR2168
012014010702LEVE3       010METAL LEVE  ON      NM   R$  000000000266300000000026960000000002599000000000264800000000026350000000002634000000000263501066000000000000147600000000000390920700000000000000009999123100000010000000000000BRLEVEACNOR2168
012014010802LEVE3       010METAL LEVE  ON      NM   R$  000000000265000000000026730000000002631000000000265300000000026720000000002667000000000267200414000000000000070700000000000187572000000000000000009999123100000010000000000000BRLEVEACNOR2168
012014010902LEVE3       010METAL LEVE  ON      NM   R$  000000000267000000000026700000000002618000000000264000000000026680000000002650000000000266800661000000000000109200000000000288396200000000000000009999123100000010000000000000BRLEVEACNOR2168
012014011062CSNA3T      030SID NACIONALON        031R$  000000000139700000000013980000000001397000000000139700000000013980000000000000000000000000000002000000000000020000000000000027953598000000000000009999123100000010000000000000BRCSNAACNOR6244
012014011062CSNA3T      030SID NACIONALON        090R$  000000000142800000000014290000000001428000000000142800000000014290000000000000000000000000000002000000000000003800000000000005429636000000000000009999123100000010000000000000BRCSNAACNOR6244
012014011462CSNA3T      030SID NACIONALON        090R$  000000000139600000000013970000000001396000000000139600000000013970000000000000000000000000000002000000000000020000000000000027936090000000000000009999123100000010000000000000BRCSNAACNOR6244
012014011562CSNA3T      030SID NACIONALON        030R$  000000000138800000000013890000000001388000000000138800000000013890000000000000000000000000000002000000000000002000000000000002776307000000000000009999123100000010000000000000BRCSNAACNOR6244
012014011562CSNA3T      030SID NACIONALON        362R$  000000000151900000000015200000000001519000000000151900000000015200000000000000000000000000000002000000000000001000000000000001519745000000000000009999123100000010000000000000BRCSNAACNOR6244
012014011562CSNA3T      030SID NACIONALON        061R$  000000000138500000000014030000000001378000000000138300000000014030000000000000000000000000000010000000000000017400000000000024071580000000000000009999123100000010000000000000BRCSNAACNOR6244
012014012062CSNA3T      030SID NACIONALON        092R$  000000000141200000000014130000000001412000000000141200000000014130000000000000000000000000000002000000000000003200000000000004520722000000000000009999123100000010000000000000BRCSNAACNOR6244
012014012162CSNA3T      030SID NACIONALON        016R$  000000000130900000000013100000000001273000000000127800000000012740000000000000000000000000000004000000000000023000000000000029399292000000000000009999123100000010000000000000BRCSNAACNOR6244
012014012162CSNA3T      030SID NACIONALON        030R$  000000000131500000000013160000000001309000000000131400000000013100000000000000000000000000000004000000000000001200000000000001577510000000000000009999123100000010000000000000BRCSNAACNOR6244
012014012162CSNA3T      030SID NACIONALON        060R$  000000000129100000000012920000000001291000000000129100000000012920000000000000000000000000000002000000000000030000000000000038732454000000000000009999123100000010000000000000BRCSNAACNOR6244
012014012162CSNA3T      030SID NACIONALON        062R$  000000000130200000000013020000000001282000000000128800000000012940000000000000000000000000000007000000000000009600000000000012371600000000000000009999123100000010000000000000BRCSNAACNOR6244
012014012162CSNA3T      030SID NACIONALON        090R$  000000000130900000000013100000000001309000000000130900000000013100000000000000000000000000000002000000000000010000000000000013095680000000000000009999123100000010000000000000BRCSNAACNOR6244
012014120262CSNA3T      030SID NACIONALON        031R$  000000000055900000000005600000000000559000000000055900000000005600000000000000000000000000000002000000000000121500000000000068025906000000000000009999123100000010000000000000BRCSNAACNOR6245
012014120262CSNA3T      030SID NACIONALON        062R$  000000000057800000000005810000000000578000000000057800000000005810000000000000000000000000000004000000000000001100000000000000636517000000000000009999123100000010000000000000BRCSNAACNOR6245
012014120262CSNA3T      030SID NACIONALON        090R$  000000000056600000000005670000000000566000000000056600000000005670000000000000000000000000000002000000000000100000000000000056635200000000000000009999123100000010000000000000BRCSNAACNOR6245
012014120262CSNA3T      030SID NACIONALON        094R$  000000000059600000000005970000000000596000000000059600000000005970000000000000000000000000000002000000000000005000000000000002982140000000000000009999123100000010000000000000BRCSNAACNOR6245
012014120362CSNA3T      030SID NACIONALON        030R$  000000000056700000000005680000000000567000000000056700000000005680000000000000000000000000000002000000000000003500000000000001987052000000000000009999123100000010000000000000BRCSNAACNOR6245
012014120362CSNA3T      030SID NACIONALON        050R$  000000000057100000000005720000000000571000000000057100000000005720000000000000000000000000000002000000000000005000000000000002858633000000000000009999123100000010000000000000BRCSNAACNOR6245
012014120362CSNA3T      030SID NACIONALON        061R$  000000000057300000000005740000000000573000000000057300000000005740000000000000000000000000000002000000000000002000000000000001147957000000000000009999123100000010000000000000BRCSNAACNOR6245
012014120462CSNA3T      030SID NACIONALON        018R$  000000000055700000000005580000000000557000000000055700000000005580000000000000000000000000000004000000000000014000000000000007799434000000000000009999123100000010000000000000BRCSNAACNOR6245
012014120462CSNA3T      030SID NACIONALON        032R$  000000000055400000000005550000000000548000000000055100000000005490000000000000000000000000000006000000000000110000000000000060700174000000000000009999123100000010000000000000BRCSNAACNOR6245
012014120462CSNA3T      030SID NACIONALON        060R$  000000000055700000000005610000000000557000000000056000000000005610000000000000000000000000000004000000000000005100000000000002857291000000000000009999123100000010000000000000BRCSNAACNOR6245
012014120462CSNA3T      030SID NACIONALON        090R$  000000000057200000000005730000000000558000000000056100000000005590000000000000000000000000000008000000000000305000000000000171307564000000000000009999123100000010000000000000BRCSNAACNOR6245
012014120462CSNA3T      030SID NACIONALON        123R$  000000000057900000000005800000000000579000000000057900000000005800000000000000000000000000000002000000000000001000000000000000579571000000000000009999123100000010000000000000BRCSNAACNOR6245
012014120562CSNA3T      030SID NACIONALON        017R$  000000000055800000000005590000000000558000000000055800000000005590000000000000000000000000000002000000000000002000000000000001117449000000000000009999123100000010000000000000BRCSNAACNOR6245
012014120562CSNA3T      030SID NACIONALON        048R$  000000000056100000000005620000000000561000000000056100000000005620000000000000000000000000000002000000000000002000000000000001122148000000000000009999123100000010000000000000BRCSNAACNOR6245
012014120562CSNA3T      030SID NACIONALON        060R$  000000000056500000000005660000000000565000000000056500000000005660000000000000000000000000000002000000000000005000000000000002827260000000000000009999123100000010000000000000BRCSNAACNOR6245
012014120862CSNA3T      030SID NACIONALON        030R$  000000000052800000000005290000000000528000000000052800000000005290000000000000000000000000000004000000000000004000000000000002113816000000000000009999123100000010000000000000BRCSNAACNOR6245
012014120862CSNA3T      030SID NACIONALON        060R$  000000000054200000000005430000000000533000000000054000000000005340000000000000000000000000000004000000000000025000000000000013516646000000000000009999123100000010000000000000BRCSNAACNOR6245
012014120862CSNA3T      030SID NACIONALON        091R$  000000000053700000000005380000000000537000000000053700000000005380000000000000000000000000000002000000000000060800000000000032703469000000000000009999123100000010000000000000BRCSNAACNOR6245
012014120862CSNA3T      030SID NACIONALON        120R$  000000000054400000000005450000000000544000000000054400000000005450000000000000000000000000000002000000000000002500000000000001360275000000000000009999123100000010000000000000BRCSNAACNOR6245
012014120862CSNA3T      030SID NACIONALON        182R$  000000000058900000000005900000000000589000000000058900000000005900000000000000000000000000000002000000000000002000000000000001178831000000000000009999123100000010000000000000BRCSNAACNOR6245
012014120962CSNA3T      030SID NACIONALON        017R$  000000000051300000000005140000000000513000000000051300000000005140000000000000000000000000000002000000000000010000000000000005136572000000000000009999123100000010000000000000BRCSNAACNOR6245
012014120962CSNA3T      030SID NACIONALON        030R$  000000000052000000000005210000000000510000000000051100000000005110000000000000000000000000000004000000000000005500000000000002812127000000000000009999123100000010000000000000BRCSNAACNOR6245
012014120962CSNA3T      030SID NACIONALON        062R$  000000000052500000000005260000000000525000000000052500000000005260000000000000000000000000000002000000000000000500000000000000262670000000000000009999123100000010000000000000BRCSNAACNOR6245
012014120962CSNA3T      030SID NACIONALON        090R$  000000000053100000000005320000000000518000000000052500000000005190000000000000000000000000000010000000000000284000000000000149361476000000000000009999123100000010000000000000BRCSNAACNOR6245
012014120962CSNA3T      030SID NACIONALON        181R$  000000000054300000000005440000000000541000000000054200000000005420000000000000000000000000000004000000000000002400000000000001300920000000000000009999123100000010000000000000BRCSNAACNOR6245
